:020000040800F2
:100000001804002045010008390400083F030008D7
:10001000350400088D010008E1050008000000001B
:10002000000000000000000000000000750400084F
:10003000910100080000000051040008610500085B
:100040005F0100085F0100085F0100085F01000810
:100050005F0100085F0100085F0100085F01000800
:100060005F0100085F0100085F0100085F010008F0
:100070005F0100085F0100085F0100085F010008E0
:100080005F0100085F0100085F0100085F010008D0
:100090005F0100085F0100085F0100085F010008C0
:1000A0005F0100085F0100085F0100085F010008B0
:1000B0005F0100085F0100085F0100085F010008A0
:1000C0005F0100085F0100085F0100085F01000890
:1000D0005F0100085F0100085F0100085F01000880
:1000E0005F0100085F0100085F0100085F01000870
:1000F0005F0100085F0100085F0100085F01000860
:100100005F0100085F0100085F0100085F0100084F
:100110005F0100085F0100085F0100085F0100083F
:100120005F0100085F0100085F0100085F0100082F
:10013000DFF80CD000F018F800480047030600086C
:10014000180400200648804706480047FEE7FEE7FF
:10015000FEE7FEE7FEE7FEE7FEE7FEE7FEE7FEE777
:100160006905000831010008064C074D06E0E0680B
:1001700040F0010394E8070098471034AC42F6D3EE
:10018000FFF7DAFF2C0600084C06000800BFFEE768
:100190007047000001B504490098086000BF02489C
:1001A00000680028FBD108BD1400002030B51448B9
:1001B00000684FF47A72B0FBF2F1B1F1807F00D3A6
:1001C0001DE021F07F40401E4FF0E02250615017AB
:1001D0000F22002807DA13071D0E0A4B00F00F0448
:1001E000241F1D5503E013071C0E074B1C5400BFB2
:1001F00000204FF0E02290610720106100BF30BD69
:100200000000002018ED00E000E400E02DE9F041DE
:10021000024600250026002000230024002791F834
:1002200003C00CF00F0591F803C00CF0100CBCF1EA
:10023000000F03D091F802C04CEA050591F800C008
:10024000BCF1000F31D0146800202BE04FF0010CFE
:100250000CFA00F3B1F800C00CEA03069E4220D16C
:1002600083004FF00F0C0CFA03F7BC4305FA03FCB4
:100270004CEA040491F803C0BCF1280F06D14FF0FA
:10028000010C0CFA00FCC2F814C00AE091F803C09B
:10029000BCF1480F05D14FF0010C0CFA00FCC2F87C
:1002A00010C0401C0828D1D31460B1F800C0BCF1C4
:1002B000FF0F34DD546800202EE000F1080C4FF0F1
:1002C000010808FA0CF3B1F800C00CEA03069E42DC
:1002D00021D183004FF00F0C0CFA03F7BC4305FA51
:1002E00003FC4CEA040491F803C0BCF1280F05D1CB
:1002F00000F1080C08FA0CF8C2F8148091F803C059
:10030000BCF1480F07D100F1080C4FF0010808FAC2
:100310000CF8C2F81080401C0828CED35460BDE809
:10032000F08102460020D3680B400BB1012000E0B1
:10033000002070470AB1016100E04161704700BFD1
:10034000FEE7000010B50121042000F083F8012130
:10035000202000F07FF8102303221901094800F043
:1003600059F8102303220421074800F053F8012212
:1003700011020448FFF7DEFF002204210248FFF7C4
:10038000D9FF10BD000801400014014038B50446F3
:100390004FF480711D48FFF7C4FF8DF80000042161
:1003A0001B48FFF7BEFF8DF8010014B1012C29D1C5
:1003B00014E09DF80000401CC0B28DF800009DF8CC
:1003C0000000022802D100208DF800009DF80020D6
:1003D0004FF480710D48FFF7ADFF14E09DF8010068
:1003E000401CC0B28DF801009DF80100022802D126
:1003F00000208DF801009DF8012004210448FFF73A
:1004000099FF00E000BF00BF38BD000000080140B8
:1004100000140140F8B507460C4615461E46ADF8D7
:1004200000408DF802508DF8036069463846FFF7AA
:10043000EDFEF8BD00BFFEE7704700000249014332
:10044000024A1160704700000000FA050CED00E060
:100450007047000029B1064A92690243044B9A6131
:1004600004E0034A92698243014B9A61704700009D
:1004700000100240704710B500F002F810BD0000F7
:100480000CB50020019000903348006840F48030A3
:100490003149086000BF3048006800F40030009027
:1004A0000198401C0190009818B90198B0F5A06F10
:1004B000F1D12948006800F4003010B1012000900B
:1004C00001E0002000900098012843D123480068F3
:1004D00040F01000214908600846006820F0030041
:1004E00008600846006840F0020008601A4840684A
:1004F000194948600846406848600846406840F42A
:10050000806048600846406820F47C1048600846D7
:10051000406840F4E81048600846006840F0807089
:10052000086000BF0C48006800F000700028F9D097
:100530000948406820F003000749486008464068C1
:1005400040F00200486000BF0348406800F00C0023
:100550000828F9D10CBD0000001002400020024024
:1005600010B500F031F810BD10B51348006840F028
:1005700001001149086008464068104908400E49CA
:100580004860084600680E4908400B490860084664
:10059000006820F4802008600846406820F4FE00CF
:1005A00048604FF41F008860FFF765FF4FF0006060
:1005B0000449086010BD0000001002400000FFF870
:1005C000FFFFF6FE08ED00E00448006820B1034894
:1005D0000068401E014908607047000014000020B8
:1005E00000BFFEE702E008C8121F08C1002AFAD1C6
:1005F00070477047002001E001C1121F002AFBD1A3
:1006000070474FF44070FFF719FFFFF79BFEFFF7AD
:10061000CDFD09E00020FFF7B9FE0120FFF7B6FE8F
:100620004FF4FA70FFF7B6FDF4E700004C0600083F
:100630000000002018000000E4050008640600081F
:100640001800002000040000F405000800A24A047D
:100650000000000000000000010203040607080972
:040660000000000096
:0400000508000131BD
:00000001FF
